:020000040800F2
:1000000000040020CF010008DD010008DF01000826
:10001000E1010008E3010008E5010008000000001C
:10002000000000000000000000000000E7010008E0
:10003000E901000800000000EB010008CB1C0008EB
:10004000FD260008A51900081D1D0008351B000825
:10005000390F0008311B0008290C00082D0C00087E
:10006000310C0008DD0C0008950D0008EF010008B8
:10007000EF010008EF010008450A0008EF01000841
:10008000EF010008EF010008EF010008A5260008B5
:10009000C9260008EF010008EF010008990D0008CB
:1000A000411E0008471E0008451E0008431E0008A8
:1000B000991E0008D11F000845200008B71200084B
:1000C000B5120008BB120008B9120008371B00085F
:1000D000391B00080923000865230008672300086E
:1000E0002B0C0008331B0008A3260008EF010008B2
:1000F000EF010008EF010008EF010008EF01000820
:10010000EF010008EF010008EF010008EF0100080F
:10011000EF010008EF010008EF010008EF010008FF
:10012000EF010008EF010008EF010008EF010008EF
:1001300000F002F800F03AF80AA090E8000C8244BF
:100140008344AAF10107DA4501D100F02FF8AFF29C
:10015000090EBAE80F0013F0010F18BFFB1A43F0A5
:10016000010318474C3D00006C3D0000103A24BFCD
:1001700078C878C1FAD8520724BF30C830C144BF0C
:1001800004680C607047000000230024002500264E
:10019000103A28BF78C1FBD8520728BF30C148BFEA
:1001A0000B6070471FB51FBD10B510BD00F035F8CE
:1001B0001146FFF7F7FF02F073FD00F053F803B4A8
:1001C000FFF7F2FF03BC00F057F8000070470B4840
:1001D00080470B4981F308880A480047FEE7FEE79D
:1001E000FEE7FEE7FEE7FEE7FEE7FEE7FEE7FEE7E7
:1001F00005480649044A064B70470000CD01000837
:1002000078180020310100087816002078180020A6
:1002100078160020704770477047754600F028F840
:10022000AE4605006946534620F00700854618B0E3
:1002300020B5FFF7DDFFBDE820404FF000064FF08E
:1002400000074FF000084FF0000B21F00701AC460B
:10025000ACE8C009ACE8C009ACE8C009ACE8C0092A
:100260008D4670470446AFF300802046FFF7A7FF96
:10027000004870471416002001491820ABBEFEE765
:10028000260002007047402935D00EDC072925D012
:1002900006DC042926D0052919D0062943D119E006
:1002A000082922D020293ED122E0B1F5806F2FD03D
:1002B00006DCB1F5807F21D0B1F5007F33D122E09B
:1002C000B1F5803F29D0B1F5003F2CD128E00122C3
:1002D000826029E04FF48072826025E04FF4803222
:1002E000826021E00822C2601EE01022C2601BE092
:1002F0000822026118E01022026115E0826922F0F2
:100300000102826110E0826922F0020282610BE048
:10031000826922F00402826106E00822426003E062
:100320001022426000E000BF00BF704710B50446D5
:100330000748201809D10121480601F055FB00218A
:100340004FF0007001F050FB00E000BF00BF10BD97
:10035000009CFFBF11B92022C26001E0202202618F
:100360007047000010B500210378012202FA03F162
:100370003D4A126842F001023B4B1A603A4A1C3275
:1003800012688A43384B1C331A608278CAB9364ADD
:100390000C3212688A43344B0C331A60C28843898A
:1003A00042EA0343304A4032047842F834308288CB
:1003B000038942EA03432C4A4032047802EBC40228
:1003C00053608278012A19D1274A0C3212680A43F5
:1003D000254B0C331A60C288838842EA0343224AC1
:1003E0004032047842F834304289038942EA0343B8
:1003F0001D4A4032047802EBC402536042783AB995
:10040000194A121D12688A43174B1B1D1A6006E019
:10041000154A121D12680A43134B1B1D1A6082896C
:1004200032B9114A143212688A430F4B14331A60DE
:100430008289012A06D10C4A143212680A430A4BF7
:1004400014331A60827B012A06D1074A1C321268D3
:100450000A43054B1C331A60034A126822F001025A
:10046000014B1A6010BD00000066004070B50446E4
:100470000D460026402D47D00EDC072D2BD006DC84
:10048000042D2FD0052D19D0062D61D11CE0082D8B
:100490002ED0202D5CD131E0B5F5806F46D006DC42
:1004A000B5F5807F36D0B5F5007F51D138E0B5F590
:1004B000803F47D0B5F5003F4AD13DE0A06801211B
:1004C00000F08CFA064645E0A0684FF4807100F019
:1004D00085FA06463EE0A0684FF4803100F07EFACF
:1004E000064637E0E068082100F078FA064631E079
:1004F000E068102100F072FA06462BE0206908211E
:1005000000F06CFA064625E02069102100F066FA3A
:1005100006461FE0A069012100F060FA064619E0D6
:10052000A069022100F05AFA064613E0A0690421EE
:1005300000F054FA06460DE06068102100F04EFA13
:10054000064607E06068082100F048FA064601E028
:10055000002600BF00BF304670BD1AB143690B438F
:10056000436102E043698B434361704730B5024603
:1005700000200023146824F002041460146844F07E
:100580000104146000E05B1CA3F57F44FF3C03D032
:10059000546814F0010FF6D0546814F0010F01D123
:1005A00000206CE00C78012C04D1146844F0800425
:1005B000146003E0146824F0800414604C78012C6B
:1005C00004D1146844F04004146003E0146824F07B
:1005D000400414608C78012C04D1146844F0200489
:1005E000146003E0146824F020041460CC78012C1B
:1005F00004D1146844F01004146003E0146824F07B
:10060000100414600C79012C04D1146844F008041F
:10061000146003E0146824F0080414604C79012C81
:1006200004D1146844F00404146003E0146824F056
:10063000040414608C79A407CD7944EA05640D7A2A
:1006400044EA05444D7A44EA05544D896D1E2C4315
:10065000D461146824F001041460002300E05B1CE2
:10066000A3F57F44FF3C03D0546814F0010FF6D18A
:10067000546814F0010F01D0002000E0012030BDCB
:1006800030B505460C46134605F5D87000EB04104E
:10069000006800F004001872187A50B905F5D87097
:1006A00000EB0410006840F2FF7101EA505018603E
:1006B00009E005F5D87000EB041000686FF06041A8
:1006C00001EAD000586005F5D87000EB041000680E
:1006D00000F00200587205F5D87000EB0410406875
:1006E00000F00F00987205F5D87000EB0410406818
:1006F000000AD87405F5D87000EB04108068D87231
:1007000005F5D87000EB04108068010A197305F52F
:10071000D87000EB04108068010C597305F5D8708F
:1007200000EB04108068000E987305F5D87000EB9C
:100730000410C068D87305F5D87000EB0410C068C9
:10074000010A197405F5D87000EB0410C068010C9B
:10075000597405F5D87000EB0410C068000E987449
:1007600021462846FFF7F6FD30BD0021017041709B
:100770008170C170017141718171C1710321017278
:100780000221417201214181704710B502460020CB
:10079000936803F08063B3F1806F00D110E0936839
:1007A00003F00063B3F1006F01D1012008E093680A
:1007B00003F08053B3F1805F01D1022000E00420F8
:1007C000042874D002F5C07303EB00131B6803F018
:1007D000010402F5C07303EB00131C600B7A7BB9B4
:1007E0004B7A0C8843EA445302F5C07404EB0014BE
:1007F0002468234302F5C07404EB0014236010E066
:100800000B7A4C6843EAC4034C7A234302F5C07464
:1008100004EB00142468234302F5C07404EB0014B5
:1008200023608B7A03F00F038B7202F5C07303EB26
:1008300000135B6823F00F0402F5C07303EB001391
:100840005C6002F5C07303EB00135B688C7A234392
:1008500002F5C07404EB001463608B7B1C064B7BB9
:1008600044EA03440B7B44EA0323CC7A234302F596
:10087000C07404EB0014A3608B7C1C064B7C44EA20
:1008800003440B7C44EA0323CC7B234302F5C0746E
:1008900004EB0014E36002F5C07303EB00131B6864
:1008A00043F0010402F5C07303EB00131C6010BD9C
:1008B00000B589B00121084601F0A6F80121042005
:1008C00001F0A2F84FF40060ADF8200003208DF88D
:1008D000220048208DF8230008A93E4800F00CFCB7
:1008E0004FF48050ADF8200018208DF8230003202D
:1008F0008DF8220008A9374800F0FEFB01214806C8
:1009000001F062F83448FFF711FD05A8FFF72DFF4D
:1009100000208DF814008DF815008DF817008DF863
:1009200016008DF818008DF819008DF81A008DF852
:100930001B0004208DF81C0002208DF81D000420EF
:10094000ADF81E0005A92448FFF710FE00208DF821
:1009500004008DF8050001208DF806000020ADF898
:100960000800ADF80A004FF6FF70ADF80C00ADF8C6
:100970000E000020ADF8100001208DF8120001A833
:10098000FFF7F0FC14208DF8000002208DF8010024
:1009900001208DF802008DF80300684600F0BEFFCC
:1009A00013208DF8000001208DF801008DF8020061
:1009B0008DF80300684600F0B1FF012202210648CD
:1009C000FFF7CBFD012211460348FFF7C6FD09B032
:1009D00000BD000000080140006400400246002005
:1009E0000A4201D0012000E00020704710B501F05C
:1009F0002BF800F0A3FA00F071FF01F0DDFC10BD50
:100A000010B500F061FD01F0A3FE032001F086FEA9
:100A100001F01AFA01F0A4FA01F0DCFAFFF748FF3E
:100A2000012000F015FF0121084600F051FE0220D0
:100A300000F00EFF0121022000F04AFE00F01BFD35
:100A400010BD00000648406840F4E040044948609A
:100A50000846406C4FF6FE710840014948647047F3
:100A60000000024021B1026842F00102026003E08E
:100A7000026822F00102026070470000016821F064
:100A8000010101600021016041608160C160484A4C
:100A9000811A90425BD012DC464AA0EB02019042E0
:100AA0003AD007DC444941181BD0142922D0282908
:100AB0007AD128E0142938D0282975D13EE0B1F543
:100AC0006C7F5BD006DCB1F5627F49D0B1F5677F02
:100AD0006AD14CE0B1F5717F57D0B1F5767F63D123
:100AE0005BE034494439496841F00F01314A443AE6
:100AF00051605AE02F494439496841F0F0012D4ACC
:100B0000443A516051E02B494439496841F47061DD
:100B1000284A443A516048E026494439496841F43A
:100B20007041244A443A51603FE0224944394968BF
:100B300041F470211F4A443A516036E01D4944395E
:100B4000496841F470011B4A443A51602DE019494B
:100B50004439496841F07061164A443A516024E0D2
:100B60001649096841F00F01144A11601DE013494C
:100B7000096841F0F001114A116016E00F49096857
:100B800041F470610D4A11600FE00C49096841F4AD
:100B900070410A4A116008E006E00849096841F41A
:100BA0007021064A116000E000BF00BF70470000DE
:100BB0008000024044000240F8FFFDBF04040240F0
:100BC0001AB103680B43036002E003688B430360C0
:100BD000704710B50022026847F6F0739A430C6A1A
:100BE0008B6823430C6923434C6923438C6923435B
:100BF000CC6923434C6A23438C6A23431A43026023
:100C0000CB6843600B6883604B68C36010BD08E02D
:100C1000421E90B2002101E04A1C91B2B1F5C87F9A
:100C2000FADB0028F4D17047704770477047000026
:100C300010B5042000F01EF9002840D0042000F078
:100C400013F94FF0804001F0AEFA04461C480068EA
:100C500010F0040F31D11B48048000881A4909881C
:100C6000401A002805DD1748008817490988401AEE
:100C700007E01448008814490988401A41F2883175
:100C800008441049088011480078012817D1084607
:100C900000880F490968401A0E4908600846006834
:100CA000B0F5FA6F0BDA08460068B0F57A7F06DD1A
:100CB000084600880849088001E00348048010BD08
:100CC000081801409000002092000020A20000209F
:100CD000880000208C000020342C014010B5082032
:100CE00000F0C8F8002847D0082000F0BDF84FF009
:100CF000804001F058FA04460120FFF788FF1F48A2
:100D0000006810F0080F35D11D48048000881D4987
:100D10000988401A002805DD194800881949098802
:100D2000401A07E01648008816490988401A41F21F
:100D3000883108441249088008460088B0F5FA6FE7
:100D40001ADA08460088B0F57A7F15DD0E4800787B
:100D500090B108460088B0F5C36F02DD4FF4C36060
:100D600001E00748008809490880084600880849CA
:100D7000088001E00348048010BD0000081801400D
:100D80009400002096000020A2000020980000207F
:100D9000343401407047000010B5402000F06AF87C
:100DA000002851D0402000F05FF84FF0804001F063
:100DB000FAF904460120FFF72AFF2748006810F0DF
:100DC000400F3FD120B2254908800846B0F9000005
:100DD00023490988401A002806DD2048B0F90000A0
:100DE0001F490988401A08E01C48B0F900001C4956
:100DF0000988401A41F28831084400B21749088036
:100E00000846B0F9000040F21451884209DA13484C
:100E1000B0F90000B0F5487F03DD002011490870EB
:100E200012E00E48B0F90000B0F5AF6F0CDD0B48D2
:100E3000B0F9000040F69801884205DA012009491E
:100E4000087001E006480480202000F013F810B17B
:100E5000202000F009F810BD080C01409A00002085
:100E60009C000020A200002001490860704700009B
:100E700014040140014600200022074B1B6803EACE
:100E80000102054B14331B680B4202D00AB101204A
:100E900000E0002070470000000401408179002933
:100EA0003ED02449096802689143224A1160111D0D
:100EB0000968026891431F4A121D11600179121FCF
:100EC00089580268114302791A4BD15019490831E7
:100ED000096802689143174A08321160111D0968B8
:100EE00002689143134A0C321160417910290ED1E6
:100EF000111F0968026811430E4A08321160111D62
:100F00000968026811430B4A0C32116010E0417904
:100F1000084A8958026811434279064BD15007E0CC
:100F20000179044A8958026891430279014BD150F2
:100F30007047000000040140704700000EB5012119
:100F4000042000F061FD0121082000F05DFD012179
:100F5000102000F059FD0121202000F055FD012155
:100F6000402000F051FD0121084600F04DFD02A88F
:100F700000F088F9C020ADF8080048208DF80B007B
:100F800002A9484800F0B8F802A800F07BF94FF435
:100F90004050ADF8080048208DF80B0002A94248E7
:100FA00000F0AAF80121080300F030F94020ADF864
:100FB000080028208DF80B0003208DF80A0002A9F4
:100FC0003A4800F099F82C20ADF8080028208DF858
:100FD0000B0003208DF80A0002A9354800F08CF8B8
:100FE0000221042000F068F80321042000F064F8D6
:100FF0000521042000F060F80621012000F05CF8D3
:101000006C20009000208DF8040010208DF8050061
:1010100001208DF806006846FFF740FF4FF480700E
:10102000ADF8080018208DF80B0003208DF80A0099
:1010300002A91C4800F060F84020ADF80800182014
:101040008DF80B0003208DF80A0002A9194800F062
:1010500053F8C020ADF8080003208DF80A001420D2
:101060008DF80B0002A9114800F046F81020ADF8E9
:1010700008008DF80B0003208DF80A0002A90C4827
:1010800000F03AF84FF40040ADF8080010208DF859
:101090000B0003208DF80A0002A9044800F02CF888
:1010A0000EBD00000008014000140140000C01408A
:1010B000001801400010014030B500228B071C0FC2
:1010C0000F2303FA04F20B4B8C1053F82430934394
:1010D000084C8D1044F8253023468C1053F82430EA
:1010E0008C07240F00FA04F42343024C8D1044F8BB
:1010F000253030BD080001402DE9F04102460025B1
:101100000026002000230024002791F803C00CF0E3
:101110000F0591F803C01CF0100F03D091F802C026
:101120004CEA050591F800C0BCF1000F31D01468FD
:1011300000202BE04FF0010C0CFA00F3B1F800C0D6
:101140000CEA03069E4220D183004FF00F0C0CFAEC
:1011500003F7BC4305FA03FC4CEA040491F803C00E
:10116000BCF1280F06D14FF0010C0CFA00FCC2F8BC
:1011700014C00AE091F803C0BCF1480F05D14FF04C
:10118000010C0CFA00FCC2F810C0401C0828D1D396
:101190001460B1F800C0BCF1FF0F34DD54680020CA
:1011A0002EE000F1080C4FF0010808FA0CF3B1F83A
:1011B00000C00CEA03069E4221D183004FF00F0CC1
:1011C0000CFA03F7BC4305FA03FC4CEA040491F85B
:1011D00003C0BCF1280F05D100F1080C08FA0CF887
:1011E000C2F8148091F803C0BCF1480F07D100F198
:1011F000080C4FF0010808FA0CF8C2F81080401CE7
:101200000828CED35460BDE8F0810000F0B50A464E
:101210000023002400210025174E7168C0F3034508
:1012200083B200F44016B6F5401F08D121F070617A
:10123000114E766826F070660F4F7E6012E000F463
:101240008016B6F5801F06D1032606FA05F4A143E1
:1012500041F0706106E0460D360103FA06F6B1432F
:1012600041F0706122B1460D360103FA06F63143B2
:10127000014E7160F0BD0000000001404161704707
:10128000016170474FF6FF710180022181700421D6
:10129000C170704770B504462146D02000F0C4FCF0
:1012A0000546601CC1B2D02000F0BEFC064646EAEE
:1012B000052070BD704770477047704700B54020EB
:1012C0000A49086000F0D0F880200849091F08602A
:1012D00000F0CAF840200549091F086000F0C4F872
:1012E00040200249086000F0BFF800BD140C014026
:1012F00000B50823002280201149086014E0500640
:10130000020E40200E49091D086000F0ADF8402093
:101310000B49086000F0A8F809480838006810F088
:10132000800F01D042F001021800A3F10101CBB2FD
:10133000E5D140200249091D0860104600BD0000AB
:10134000100C014000B50246082319E04020114965
:10135000086000F089F812F0800F04D080200D4959
:10136000091F086002E080200A4908605006020E4A
:1013700000F07AF840200749091F086000F074F86F
:101380001800A3F10101CBB2E0D14020014908606F
:1013900000BD0000140C014000B580201049086019
:1013A0004020086000F060F80D4808380068002010
:1013B00000B100BD80200A49091D086000F054F802
:1013C00007480838006810F0800F01D00020F0E7CF
:1013D00080200349091D086000F046F80120E8E775
:1013E000100C014000B540200A49086000F03CF8AC
:1013F00080200849086000F037F840200549091F9F
:10140000086000F031F880200249091F086000F0F0
:101410002BF800BD140C014000B5402011490860B4
:1014200000F022F880200F49091F086000F01CF826
:1014300040200C49091F086000F016F809480C38D4
:10144000006810F0800F06D040200649086000F0C8
:101450000BF8002000BD40200249086000F004F8AD
:101460000120F7E7140C01401E2001E0411EC8B224
:101470000028FBD1704710B545F2555000F01EF81A
:10148000022000F00FF84FF4FA7000F011F800F0AD
:1014900001F810BD4AF6AA20014908607047000013
:1014A00000300040014948607047000000300040B3
:1014B0000149886070470000003000400149086021
:1014C00070470000003000401CB54FF47A742EA124
:1014D00003C9CDE900014BE007221921D02000F01B
:1014E000D1FB03221A21D02000F0CCFB18221B21B3
:1014F000D02000F0C7FB01221C21D02000F0C2FB4D
:1015000003226B21D02000F0BDFB1921D02000F078
:101510008BFB8DF800001A21D02000F085FB8DF8A0
:1015200001001B21D02000F07FFB8DF802001C2160
:10153000D02000F079FB8DF803006B21D02000F063
:1015400073FB8DF804009DF80000072810D19DF86A
:10155000010003280CD19DF80200182808D19DF83D
:101560000300012804D19DF80400032800D103E002
:101570002000A4F10104AFD100BF00F00BF801205E
:10158000034908701CBD0000FFFFFFFFFFFF0000C4
:10159000280000202DE9F047002400BF4EE047203E
:1015A000FFF778FE0FFA80F94320FFF773FE05B2CC
:1015B0004520FFF76FFE06B2284602F0B9FA364919
:1015C000364A126841F82200304602F0B1FA344936
:1015D000324A126841F82200484602F0A9FA31491D
:1015E0002E4A126841F822002C480068401C2B4902
:1015F0000860284601F0DAFF07462B480CC8384639
:1016000001F0D4FD284A03C2304601F0CFFF07465F
:1016100026480CC8384601F0C9FD244A03C2484692
:1016200001F0C4FF074622480CC8384601F0BEFD51
:101630001F4A03C21420FFF7EAFA641CB4F5E17FE5
:10164000ADDB164800681B4908601B4908601B4950
:10165000086000221A4B144903C901F04FFE0746E7
:1016600001F072FD174908600022154B0F4903C9AC
:1016700001F044FE074601F067FD134908600022AF
:101680000F4B0B4903C901F039FE074601F05CFD21
:101690000E490860BDE8F087FC00002048000020EB
:1016A000040800200C0F002030000020380000202B
:1016B0004000002054000020500000204C0000207A
:1016C00000207C40780000207C000020800000206A
:1016D00030B585B004460D4600208DF809008DF820
:1016E000080004208DF80A0059208DF80B00AE2167
:1016F0008DF80E10092C1ED2DFE804F01D05080B32
:101700000E1114171A001020009016E020200090EF
:1017100013E03020009010E0402000900DE05020B9
:1017200000900AE06020009007E07020009004E044
:101730008020009001E000BFFEE700BF012D06D031
:10174000022D0BD0032D10D0042D1CD114E05621F6
:101750008DF80C10AB218DF80D1016E055218DF889
:101760000C10AA218DF80D100FE058218DF80C10E7
:10177000AD218DF80D1008E057218DF80C10AC212B
:101780008DF80D1001E000BFFEE700BF0020044906
:10179000087069460348FEF7F8FF05B030BD000049
:1017A000C40000200064004030B585B005460C46FA
:1017B00000208DF809008DF8080004208DF80A003B
:1017C000092D1ED2DFE805F01D05080B0E111417B8
:1017D0001A001120009016E02120009013E0312023
:1017E000009010E0412000900DE0512000900AE0B0
:1017F0006120009007E07120009004E081200090BB
:1018000001E000BFFEE700BF40F6AC50844200DBC1
:1018100004460C48844200DC0446200E8DF80B0080
:10182000210C8DF80C10210A8DF80D10E1B28DF805
:101830000E1000200449087069460448FEF7A5FF11
:1018400005B030BD54F2FFFFC4000020006400402A
:1018500010B586B0044600208DF80C008DF80D0000
:1018600001208DF80E0000200190092C26D2DFE81F
:1018700004F02505090D1115191D210010208DF802
:101880000F001DE020208DF80F0019E030208DF8AA
:101890000F0015E040208DF80F0011E050208DF86A
:1018A0000F000DE060208DF80F0009E070208DF82A
:1018B0000F0005E080208DF80F0001E000BFFEE77B
:1018C00000BF00200349087001A90348FEF75DFF2F
:1018D00006B010BDC40000200064004008B51C2004
:1018E0008DF8000000208DF8010002208DF8020024
:1018F00001208DF80300684600F010F825208DF8CF
:10190000000000208DF8010001208DF802008DF804
:101910000300684600F002F808BD000070B5002121
:1019200000230F22C4780CB3164C246804F4E0643E
:10193000C4F5E064210AC1F10403CA40447804FA02
:1019400003F184781440214309010F4C0678A15516
:10195000047804F01F050124AC4005786D114FF0A8
:10196000E02606EB8505C5F8004109E0047804F09F
:101970001F050124AC40054D0678761145F8264038
:1019800070BD00000CED00E000E400E080E100E04C
:1019900002490143024A1160704700000000FA0545
:1019A0000CED00E07047000029B1064A526902437D
:1019B000044B5A6104E0034A52698243014B5A6165
:1019C000704700000010024029B1064AD269024364
:1019D000044BDA6104E0034AD2698243014BDA61C5
:1019E000704700000010024029B1064A1269024304
:1019F000044B1A6104E0034A12698243014B1A61E5
:101A0000704700000010024029B1064A9269024363
:101A1000044B9A6104E0034A92698243014B9A6144
:101A2000704700000010024029B1064AD268024304
:101A3000044BDA6004E0034AD2688243014BDA6067
:101A4000704700000010024010B500F03FF9024856
:101A500000F004F810BD0000C800002030B50021DF
:101A60000022002400232D4D6D6805F00C0121B1EA
:101A7000042905D0082923D105E0294D056022E07D
:101A8000274D05601FE0254D6D6805F47012022595
:101A900005EB9242214D6D6805F480341CB9214D4F
:101AA000554305600BE01D4D6D6815F4003F03D0F4
:101AB0001C4D5543056002E0194D5543056002E099
:101AC000174D056000BF00BF144D6D6805F0F001B3
:101AD0000909154D6B5C0568DD4045600F4D6D686B
:101AE00005F4E061090A104D6B5C4568DD408560D6
:101AF0000A4D6D6805F46051C90A0B4D6B5C456871
:101B0000DD40C560054D6D6805F44041890B074D0A
:101B10006B5CC568B5FBF3F5056130BD0010024094
:101B200000127A0000093D00000000201000002093
:101B30007047704770477047704710B500F002F863
:101B400010BD00000CB500200190009034480068E2
:101B500040F480303249086000BF3148006800F42A
:101B6000003000900198401C0190009818B901982D
:101B7000B0F5A06FF1D12A48006810F4003F02D000
:101B80000120009001E0002000900098012843D13E
:101B90002448006840F010002249086008460068A8
:101BA00020F0030008600846006840F0020008606A
:101BB0001B4840681A494860084640684860084623
:101BC000406840F4806048600846406820F47C101B
:101BD00048600846406840F4E810486008460068DD
:101BE00040F08070086000BF0D48006810F0007F72
:101BF000FAD00B48406820F00300094948600846C5
:101C0000406840F00200486000BF0548406800F0AE
:101C10000C000828F9D101E000BFFEE70CBD000070
:101C2000001002400020024070B504460D46FFF748
:101C3000B3FB08B9002070BD2046FFF783FBFFF718
:101C4000EBFB30B9FFF7CEFB01200D4908700020F7
:101C5000F1E72846FFF776FBFFF7DEFBFFF79CFB7B
:101C6000611CC8B2FFF76EFBFFF7D6FBFFF740FB26
:101C70000646FFF723FBFFF7B5FB3046DBE7000026
:101C80008400002070B506460C461546FFF784FB1D
:101C900008B9002070BD3046FFF754FBFFF7BCFBCE
:101CA00018B9FFF79FFB0020F4E72046FFF74AFB37
:101CB000FFF7B2FB2846FFF745FBFFF7ADFBFFF749
:101CC00091FB00F05BFD0120E4E7704710B5104880
:101CD000006840F001000E490860084640680D4960
:101CE00008400B494860084600680B49084008490D
:101CF00008600846006820F48020086008464068B4
:101D000020F4FE00486000208860FFF716FF10BD39
:101D1000001002400000FFF8FFFFF6FE7047F0B52C
:101D20000C46154600210022068C4FF6FE773E40F9
:101D30000684018B028C4FF60C7631407E1C06EA3D
:101D400003162E4331437E1E324044F001063243D7
:101D500001830284F0BDF0B50C4615460021002237
:101D60000026078C4FF6EF7C07EA0C070784018BEF
:101D7000028C4FF6FF7707EA041640F6FF4739401A
:101D80004FF6FF7707EA033739434FF6FF7707EA45
:101D9000052739434FF6DF773A4046F010073A43BC
:101DA00001830284F0BDF0B50C46154600210022E7
:101DB0000026078C4FF6FF6C07EA0C070784818B1F
:101DC000028C4FF6FF7707EA04264FF60C7739406E
:101DD0004FF6FF7707EA03172F4339434FF6FF57B4
:101DE0003A4046F480773A4381830284F0BDF0B5EF
:101DF0000C461546002100220026078C4EF6FF7C7B
:101E000007EA0C070784818B028C4FF6FF7707EAFD
:101E1000043640F6FF4739404FF6FF7707EA0527BB
:101E20004FF6FF7C0CEA033C47EA0C0739434DF6BA
:101E3000FF773A4046F480573A4381830284F0BDED
:101E400070477047704770470EB501210846FFF78D
:101E5000BBFD4720ADF8000049F64040ADF8040056
:101E60000020ADF80600ADF8020069464FF0804052
:101E700000F022FA0121880700F0E5F80121880727
:101E800000F0F0F801221146900700F0E0F901217E
:101E9000880700F0EAF80EBD38B50121880700F088
:101EA00085F9002849D00121880700F0DBF8234894
:101EB00000F079F922490880224800F074F922499B
:101EC000088000F03DFE044601F016FE00B21F49F6
:101ED000088000F0D5FC044601F00EFE00B21C495B
:101EE000088000F07DFD044601F006FE00B21949AD
:101EF0000880154800780090114803881348B0F90D
:101F000000200846B0F900101148B0F9000000F0B8
:101F100085FF11480068012807D1C1030F48FFF76A
:101F2000AFF900200C49086007E04FF400410B486E
:101F3000FFF7A4F901200849086038BD00040040FB
:101F4000AC00002000080040AE000020B6000020D9
:101F5000B2000020B4000020A8000020000C0140C6
:101F600000B587B001210220FFF72EFD174800F0D1
:101F700089F804A800F0BEF90020ADF8100047F27F
:101F80003050ADF814000020ADF81600ADF8120086
:101F900004A90E4800F090F900231A4603210B48CB
:101FA00000F0E0F801A800F049F90020ADF80C00BD
:101FB00001A9064800F00BF90121044800F04FF890
:101FC0000121024800F051F807B000BD00040040B4
:101FD0007047000000B587B001210420FFF7F4FC32
:101FE000174800F04FF804A800F084F90020ADF87D
:101FF000100047F23050ADF814000020ADF8160084
:10200000ADF8120004A90E4800F056F900231A4654
:1020100003210B4800F0A6F801A800F00FF90020FA
:10202000ADF80C0001A9064800F0D1F801210448E0
:1020300000F015F80121024800F017F807B000BDC4
:1020400000080040704721B1028842F080020280FF
:1020500004E0028840F27F331A4002807047CA438E
:1020600002827047CA430282704721B1028842F05F
:102070000102028004E0028840F2FE331A4002802E
:102080007047000010B504463449601A8C4245D0B0
:102090000CDCB4F1804F1DD03148201823D0B0F5AE
:1020A000806F29D0B0F5006F54D12EE0B0F5806F6D
:1020B0003DD0B0F58E3F03D0B0F5923F4AD13FE01E
:1020C0000121C802FFF7B0FC00214FF40060FFF7C8
:1020D000ABFC40E001210846FFF786FC002101200F
:1020E000FFF782FC37E001210220FFF77DFC002191
:1020F0000220FFF779FC2EE001210420FFF774FC99
:1021000000210420FFF770FC25E001210820FFF7E3
:102110006BFC00210820FFF767FC1CE00121102068
:10212000FFF762FC00211020FFF75EFC13E00121A5
:102130002020FFF759FC00212020FFF755FC0AE082
:1021400001214803FFF770FC00214FF40050FFF716
:102150006BFC00E000BF00BF10BD0000001000409D
:1021600000FCFFBFF0B50C4615461E4600210022BC
:1021700000230189028B038C4FF6F8773940214305
:102180004FF6FC473A4040F201173A434FF6DD77ED
:102190003B404FF6FF7707EA06172F433B43018189
:1021A00002830384F0BD0146888C704730B5024637
:1021B000002000230024158A05EA0103958905EA19
:1021C000010413B10CB1012000E0002030BD70B556
:1021D00005460C46208850B92389A2886188284684
:1021E000FFF79DFDE188284600F03AF825E02088B9
:1021F00004280AD12389A28861882846FFF7ABFD0D
:10220000E188284600F035F817E0208808280AD130
:102210002389A28861882846FFF7C5FDE188284602
:1022200000F034F809E02389A28861882846FFF786
:10223000DEFDE188284600F032F870BD0021018003
:102240004180012181800021C180018170471AB144
:1022500083890B43838102E083898B4383817047A9
:10226000028B4FF6F3731A400283028B0A430283F8
:102270007047028B4FF2FF331A400283028B4FF6F6
:10228000FF7303EA01231A4302837047828B4FF6E0
:10229000F3731A408283828B0A4382837047828B56
:1022A0004FF2FF331A408283828B4FF6FF7303EAAB
:1022B00001231A4382837047028802F08F02028052
:1022C000CA884B881A4303881A4302808A88828509
:1022D0000A880285054A904202D0054A904201D1FF
:1022E0000A7A02860122828270470000002C014097
:1022F000003401404FF6FF71818000210180C180D0
:10230000418001727047000010B540F22551094824
:1023100000F02AF901280BD140F22551054800F0C0
:1023200023F8044800F0B4F9C4B2204600F03CFAA7
:1023300010BD00000038014010B504460BE014F851
:10234000011B074800F0A9F900BF8021044800F0F4
:1023500002F90028F9D020780028F0D110BD000043
:10236000003801407047704710B5002200230A1260
:1023700001249440A3B2DC43048010BD10B5024692
:102380000020108A4FF2FF0318400B884C8823432B
:102390008C882343CC8823431843108210BD21B17D
:1023A000828942F40052828104E082894DF6FF73F3
:1023B0001A4082817047000000B593B0012144F2B9
:1023C0002500FFF721FB4FF40070ADF84800032013
:1023D0008DF84A0018208DF84B0012A95348FEF7DB
:1023E0008BFE4FF48070ADF8480012A95048FEF7FC
:1023F00083FE4FF48060ADF8480004208DF84B0058
:1024000012A94A48FEF778FE4FF40070ADF8480074
:1024100012A94748FEF770FE01210846FFF7C4FAEB
:102420004448FEF72BFB444801904448029010209A
:1024300003900020059080200690002007900890CF
:1024400009904FF440500A9000200B9001A93948A0
:102450003C30FEF7BEFB0122022136483C30FEF73D
:10246000AFFB002133483C30FEF7FCFA4FF4C0606C
:10247000FFF78EFA0E208DF8000000208DF8010085
:1024800002208DF8020001208DF803006846FFF756
:1024900045FA4FF4E1300E900020ADF83C00ADF865
:1024A0003E00ADF84000ADF844000C20ADF842000D
:1024B0000020ADF83000ADF832004FF40070ADF8F8
:1024C00034000020ADF836000CA91B48001FFFF7B0
:1024D00055FF0EA91848001F00F08CF8012116487E
:1024E000001FFFF75CFF012240F225511248001F38
:1024F00000F060F80CA91248FFF740FF0EA9104841
:1025000000F078F8012240F225510D4800F052F811
:10251000012280210848001F00F014F8012106481C
:10252000001FFFF73CFF13B000BD00000008014092
:10253000001401400800024004380140DC00002083
:10254000004800401AB1838A0B43838202E0838AE9
:102550008B43838270470246002013880B4201D0D0
:10256000012000E00020704770B502460B460024B1
:10257000002100250020C3F3421503F01F010126AE
:1025800006FA01F1012D02D19689314006E0022DB3
:1025900002D1168A314001E0968A31401C12012690
:1025A00006FA04F41688344011B10CB1012000E0A1
:1025B000002070BDF0B50346002400260025002051
:1025C0001846C1F3421401F01F06012707FA06F569
:1025D000012C01D10C3004E0022C01D1103000E0BC
:1025E00014301AB107682F43076002E00768AF4351
:1025F0000760F0BD2DE9F04786B005460E46002481
:10260000A24600BF00BF00272F462C8A4CF6FF7061
:102610000440F08804432C82AC894EF6F310044049
:10262000B08831890843718908430443AC81AC8A7E
:102630004FF6FF400440B0890443AC8201A8FFF785
:102640000DFA1248874202D1DDF810A001E0DDF852
:102650000CA00AEBCA0000EB0A1031688900B0FB3D
:10266000F1F86420B8FBF0F004012009642101FBBB
:102670001089322000EB0910B0FBF1F000F00F00E0
:1026800004432C8106B0BDE8F0870000003801400B
:1026900001468888C0F308007047C1F308028280B1
:1026A0007047704710B501210548FDF7DFFE30B1D6
:1026B00001210348FDF7E7FD01200249087010BD24
:1026C00000640040C400002000B585B00221074826
:1026D000FDF7CCFE40B102210448FDF7D4FD6A4667
:1026E00000210248FDF7CCFF05B000BD00640040AA
:1026F0000020014908607047082C004010B55020A8
:1027000000F004F8FFF7F4FF10BD000000F07F01B7
:10271000014A116070470000002C004070B504466B
:10272000002510E04FF480710848FEF7A9FD9620BF
:1027300000F02BF84FF480710448FEF79FFD9620BF
:1027400000F023F86D1CA542ECD370BD000C0140D5
:1027500008B501210820FFF757F94FF48070ADF854
:10276000000010208DF8030003208DF80200694658
:102770000148FEF7C1FC08BD000C014041F2883061
:1027800000E0401E0028FCD1704710B5002107E092
:1027900042F63C0200BF1300A2F10102FBD1491C2A
:1027A0008142F5D310BD000010B5044630480078D2
:1027B000092856D2DFE800F0050B141F3155555596
:1027C0004300F82C02D10120294908704DE0294826
:1027D000047000782649087000202749087044E0FA
:1027E0008F2C04D123480178244800F065FA00209A
:1027F0001F49087039E0204801780078401C1E4AC3
:1028000010701E484454104600781A4909788842CE
:1028100002DB02201649087027E01748017800788B
:10282000401C154A10701548445410460078114950
:102830000978884202DB02200D49087015E00E4835
:1028400001780078401C0C4A10700C484454104623
:10285000007808490978884202DB022004490870A0
:1028600003E000200249087010BD00BF0120FBE713
:10287000240000202300002022000020E800002087
:102880002DE9FC5F0020019000904320FEF702FD3F
:1028900000B2494908800846B0F9000001F048F943
:1028A000019046480168019801F08CFA0546002124
:1028B00001F056FA05D241480168019801F082FA08
:1028C00006E03E480168019801F07CFA80F0004083
:1028D00004463B4901F044FA47D238480168019860
:1028E00001F070FA804601F06DF80646354A364B25
:1028F00000F074FE044600F027FC009000210098D0
:1029000001F02EFA18D2009801F05CF882462F4AA6
:102910002F4B00F063FE06460F462E48006801F07C
:1029200051F8804632463B4600F040FC044600F039
:102930000BFC284908601DE0009801F043F80646AA
:10294000224A234B00F04AFE80468946214800680F
:1029500001F038F8044642464B4600F027FC824618
:1029600000F0F2FB1B49086004E0019800F076FAE1
:102970001249086018491748006801F0F1F907D2B8
:1029800015491448006801F01DFA124908600CE06E
:1029900000211048006801F0E3F806D20E490D4806
:1029A000006801F03BF80B4908600C4909480068D1
:1029B00001F00AF9BDE8FC9F5800002078000020D3
:1029C000000040407B14AE47E17AA43FEC89AE0B97
:1029D0003F38AF3F6C0000200000B44300002041AE
:1029E0002DE9FC5F0020019000904520FEF752FC8D
:1029F00000B2494908800846B0F9000001F098F893
:102A0000019046480168019801F0DCF90546002173
:102A100001F0A6F905D241480168019801F0D2F908
:102A200006E03E480168019801F0CCF980F00040D2
:102A300004463B4901F094F947D2384801680198AF
:102A400001F0C0F9804600F0BDFF0646354A364B1E
:102A500000F0C4FD044600F077FB009000210098D0
:102A600001F07EF918D2009800F0ACFF82462F4AA0
:102A70002F4B00F0B3FD06460F462E48006800F0CD
:102A8000A1FF804632463B4600F090FB044600F032
:102A90005BFB284908601DE0009800F093FF0646A4
:102AA000224A234B00F09AFD80468946214800685F
:102AB00000F088FF044642464B4600F077FB824612
:102AC00000F042FB1B49086004E0019800F044FA62
:102AD0001249086018491748006801F041F907D207
:102AE00015491448006801F06DF9124908600CE0BE
:102AF00000211048006801F033F806D20E490D4855
:102B0000006800F08BFF0B4908600C490948006819
:102B100001F05AF8BDE8FC9F580000207C0000201E
:102B2000000040407B14AE47E17AA43FEC89AE0B35
:102B30003F38AF3F700000200000B4430000204148
:102B40002DE9FC5F0020019000904720FEF7A2FBDA
:102B500000B2494908800846B0F9000000F0E8FFDB
:102B6000019046480168019801F02CF905460021C2
:102B700001F0F6F805D241480168019801F022F908
:102B800006E03E480168019801F01CF980F0004021
:102B900004463B4901F0E4F847D2384801680198FF
:102BA00001F010F9804600F00DFF0646354A364B1D
:102BB00000F014FD044600F0C7FA009000210098D0
:102BC00001F0CEF818D2009800F0FCFE82462F4AA1
:102BD0002F4B00F003FD06460F462E48006800F01C
:102BE000F1FE804632463B4600F0E0FA044600F033
:102BF000ABFA284908601DE0009800F0E3FE0646A5
:102C0000224A234B00F0EAFC8046894621480068AE
:102C100000F0D8FE044642464B4600F0C7FA824612
:102C200000F092FA1B49086004E0019800F010FAE5
:102C30001249086018491748006801F091F807D256
:102C400015491448006801F0BDF8124908600CE00D
:102C500000211048006800F083FF06D20E490D489D
:102C6000006800F0DBFE0B4908600C490948006869
:102C700000F0AAFFBDE8FC9F580000208000002063
:102C8000000040407B14AE47E17AA43FEC89AE0BD4
:102C90003F38AF3F740000200000B44300002041E3
:102CA000FDF7A4FEFDF7ACFE0A20FDF7B0FF00BF64
:102CB000FEF7F0FBFCE7000070B504460D46032D5F
:102CC00031D12078012811D1B4F8011001F2DC5182
:102CD00009B2444AD1804449097819BB1146C988D0
:102CE000424A1288891A424A11801BE0B4F8011046
:102CF00001F2DC5109B23B4A11813B49097889B99B
:102D00001146B1F90810B1F5C36F02DD4FF4C3618C
:102D100002E03449B1F90810324A1181114609899B
:102D2000344A11805CE0042D48D120883249088063
:102D30000846B0F90000B0F57A7F02DD4FF47A70F2
:102D400002E02D48B0F900002B4908800846B0F990
:102D5000000010F57A7F01DA284802E02648B0F931
:102D60000000254908806088254908800846B0F998
:102D70000000B0F57A7F02DD4FF47A7002E020485F
:102D8000B0F900001E4908800846B0F9000010F5AF
:102D90007A7F01DA194802E01948B0F900001849B1
:102DA00008801548B0F900100120FEF7FDFC14481A
:102DB000B0F900100220FEF7F7FC11E0082D0CD14D
:102DC00020880849088060884880A0888880E0883A
:102DD00000F2DC5000B2088102E00AA0FFF7ACFA72
:102DE00070BD000014000020A20000208800002018
:102DF000342C0140343401401E00002018FCFFFF39
:102E0000200000206572726F7220696E2072656307
:102E100065697665206461746100000070B5049C8A
:102E2000A2250C4E35703546A5F80100A5F8031013
:102E3000A5F80520A5F80730A5F809402A25F57260
:102E40000C25054EB56435466D6C45F0010575647D
:102E500070BD0000DC000020000002402DE9F041C0
:102E6000044638480068B0F5E17F32DA3649354A21
:102E7000126851F8220000F0A5FD064633480CC840
:102E8000304600F0A9FC314A03C22F482D49096899
:102E900040F8214001462B4A126851F8220000F008
:102EA00091FD064629480CC8304600F07FF9274AB4
:102EB00003C224480068401C224908600022244BB9
:102EC000224903C900F01AFA064600F03DF905460A
:102ED00034E000201B4908601B491A4A126851F867
:102EE000220000F06FFD064618480CC8304600F07E
:102EF00073FC164A03C214481649096840F8214079
:102F00000146104A126851F8220000F05BFD0646A7
:102F10000E480CC8304600F049F90C4A03C2094873
:102F20000068401C074908600022094B074903C993
:102F300000F0E4F9064600F007F905462846BDE82A
:102F4000F08100004C000020FC0000203000002038
:102F500000207C40480000202DE9F041044638481C
:102F60000068B0F5E17F32DA3649354A126851F827
:102F7000220000F027FD064633480CC8304600F01A
:102F80002BFC314A03C22F482D49096840F82140E3
:102F900001462B4A126851F8220000F013FD064644
:102FA00029480CC8304600F001F9274A03C22448DA
:102FB0000068401C224908600022244B224903C9B2
:102FC00000F09CF9064600F0BFF8054634E000200A
:102FD0001B4908601B491A4A126851F8220000F088
:102FE000F1FC064618480CC8304600F0F5FB164ABE
:102FF00003C214481249096840F821400146104AAA
:10300000126851F8220000F0DDFC06460E480CC89C
:10301000304600F0CBF80C4A03C209480068401C57
:10302000074908600022094B074903C900F066F907
:10303000064600F089F805462846BDE8F081000004
:1030400050000020040800203800002000207C40B0
:103050002DE9F041044638480068B0F5E17F32DAE6
:103060003649354A126851F8220000F0ABFC06469A
:1030700033480CC8304600F0AFFB314A03C22F483A
:103080002D49096840F8214001462B4A126851F841
:10309000220000F097FC064629480CC8304600F094
:1030A00085F8274A03C224480068401C224908606A
:1030B0000022244B224903C900F020F9064600F003
:1030C00043F8054634E000201B4908601B491A4AB2
:1030D000126851F8220000F075FC064618480CC82A
:1030E000304600F079FB164A03C2144812490968B9
:1030F00040F821400146104A126851F8220000F0C1
:1031000061FC06460E480CC8304600F04FF80C4AE9
:1031100003C209480068401C074908600022094BA7
:10312000074903C900F0EAF8064600F00DF8054625
:103130002846BDE8F0810000540000200C0F00205C
:103140004000002000207C4021F00042A2F16052AB
:10315000B2F5801F01F0004328BFD2F17F6C0BD97C
:103160005FEA001C43EAC20242EB507018BF70478E
:1031700028BF20F001007047B2F5801FBCBF184681
:1031800070474FEA410C1CF5001F02D2084600F0C0
:10319000E2BD70B500F0CCFA00000089FFF7F6BF81
:1031A0004FF00040A0F580007047000010B591EA94
:1031B000030F48BF83F0004300F12283841A71EBB0
:1031C000030C05D2121943EB0C03001B61EB0C013D
:1031D000DFF824E14FEA1154A4EB135C1EEA430F1D
:1031E00018BF9EEA445F73D023EA0E03DCF1200E81
:1031F00021EA045143F4801332D322FA0CFE10EB7F
:103200000E0023FA0CFE41EB0E01CCF1200E03FA66
:103210000EFE10EB0E0051F10001B1F5801FCCF154
:10322000200E32D201EB045112FA0EF2BDE810402A
:1032300058BF7047401C38BF5FEA420218BF704752
:10324000002814BF20F0010041F100014FEA4103C2
:1032500013F5001F38BF7047A1F1C04100F0B6BAA6
:10326000012A43EB0302ACF1200CDCF11F0E32BF4C
:103270004FF0000E23FA0CF310EB030041EB045166
:10328000B4EB115FD0D0A1EB045101F580114908D6
:103290005FEA300001EB04510ED350F1000038BF5B
:1032A00012FA0EFE08D1BDE81040C9E7401C38BF35
:1032B0005FEA4202CAD1C3E7BDE810404FEA4103CA
:1032C00013F5001F38BF7047A1F1C04100F07EBA6E
:1032D0009EEA445F08D011EA5E0FBDE8104004BFCB
:1032E00001F0004100207047BDE8104070B500F0CB
:1032F0001FFA00BF64FBBE3E0000E0FF2DE9C041A5
:1033000030B4DFF8A0C23CEA111418BF3CEA131431
:1033100000F0EC8081EA03051CEA111444EAD5743C
:1033200018BF1CEA131500F0C780A4EB05044FF08A
:10333000004545EAC12145EAC32341EA505143EA29
:10334000525304F17F74994204F500344FEAC020CF
:103350004FEAC22208BF904200F09C804FEA1365FA
:103360000FF24016765D4FEA134506FB05F7C7F1ED
:10337000807706FB07F74FEAD737A7FB036876424B
:10338000C8F58038A7FB06CE38BFA8F1010807FBB7
:1033900008E64FF0000EA6FB028CE6FB03CEDCF144
:1033A000000CCEF1004E38BFAEF1010EA6FB0C585A
:1033B0004FF000074FF00005E6FB0E87A1FB08C6A3
:1033C000A0FB07CE16EB0E0645F10005E1FB0765F5
:1033D00015F1E04E7EBFA4F580345FEA46066D41EC
:1033E00016F1800745F100054FEA17274FEA0666F8
:1033F00047EA0567A6F1DE46B6F1805F4FEA15257C
:103400001FD9384624F0010C05EBC471BCF1FE6FE6
:1034100001EB0C1102D8F0BCBDE8008124425CBF76
:1034200001F5801E9EEAC47F02D4F0BCBDE8008195
:10343000244238D4F0BCA1F1C041BDE8004100F005
:10344000C5B94FEAD22242EA43524FEAD323A7FB3F
:1034500002864FEAD02040EA415007FB03661EEA8D
:103460000E0F4FEAD12105FB026658BFA6EB0056AE
:10347000B6EB00564FEA520E4EEAC37E18EB0E0E24
:1034800056EB530EBDD518EB02085E417F1C55F17B
:103490000005B6E74FF480154FF000074FF0000627
:1034A0004FF00008ADE7F0BC4FF0000001F1C04163
:1034B00001F00041BDE8008111EA0C1F0CEA131570
:1034C00000D00CE013EA0C1F00F025804FF0000044
:1034D000F0BC81EA030101F00041BDE80081F0BCCD
:1034E000BDE8004181EA030100F070B9F0BCBDE81D
:1034F000004170B500F01CF9097EFC3E00F007B8F1
:1035000081EA03014FF0000001F00041704781EAB9
:10351000030100F05BB9F0BCBDE800414FF00000D2
:1035200021497047FFFDFBF9F7F5F4F2F0EEEDEB02
:10353000E9E8E6E4E3E1E0DEDDDBDAD8D7D5D4D3B1
:10354000D1D0CFCDCCCBCAC8C7C6C5C4C2C1C0BFFD
:10355000BEBDBCBBBAB9B8B7B6B5B4B3B2B1B0AF03
:10356000AEADACABAAA9A8A8A7A6A5A4A3A3A2A1E7
:10357000A09F9F9E9D9C9C9B9A99999897979695A2
:1035800095949393929191908F8F8E8E8D8C8C8B3E
:103590008B8A8989888887878685858484838382C6
:1035A000828181800000FF070000F87F10F0004258
:1035B00048BF4042B0FA80F310FA03F10AD0C3F1D9
:1035C0001D0303F580634FEA415002EB035202EB07
:1035D000D12170474FF0000070470000DFF848C16C
:1035E00070B51CEA111E1EBF1CEA13159EEA0C0FD3
:1035F00095EA0C0F00F06F8081EA030423EA4C1374
:103600004EEAD47E21EA4C1141F4801143F4801338
:10361000AE44A1FB024CA0FB0365AEF17F7E3619E0
:1036200055EB0C05A1FB034C4CF10003A0FB021C65
:1036300016EB0C06654153F10003094218BF46F032
:10364000010613F4007F0BD14FEA03314FEA053036
:10365000340341EA155140EA16506FF003020AE0C4
:103660004FEAC3214FEAC520F40241EA555140EA2E
:1036700056506FF0020202EB2E4201EB025585EA32
:10368000CE710AD05FEA440C18BF24F0004450F118
:10369000000041F1000120EAD47040F2FE7C624556
:1036A00000D270BDA84214BF4FF080444FF0404498
:1036B000002E08BF0024BEF1806FA8BFA1F1C04159
:1036C000BDE8704080F282804FF0000001F1C041FF
:1036D00001F0004170479EEA0C0F0CEA131518BF69
:1036E00095EA0C0F06D04FF0000081EA030E0EF0B1
:1036F000004170BD00F01CF88900013E00F007B8E1
:1037000000F009B84FEA430C5FEA5C5C08D081EA3C
:10371000030100F05BB84FEA410C5FEA5C5CF6D154
:103720004FF00000014970470000FF070000F87FDC
:103730000EF1020E2EF0030E5EF8046B364205D435
:10374000012A43EB030515F5001F12D8012841EBB0
:10375000010C1CF5001F0CD80ED14FEAD17C15F5D9
:10376000001F0CEB4C0C0CF1020C08BF4CEBD37C93
:1037700004E04FF0080C01E04FEAD37C0CEB4C0561
:1037800026FA05F606F00706B6F1040C06D20EEB93
:10379000860CBDE870404CF0010C6047DFE80CF08F
:1037A000090B02024FF000414FF00000A1F500218B
:1037B00070BD19461046012851EB010418BFD4F51D
:1037C000001484BF002001F0004170BD0808A0F57E
:1037D00000114FEA3101704791EA030F10B581F0F3
:1037E00000413FF5EBAC83F0004300F009B8000066
:1037F00010B591EA030F48BF83F000433FF5DEACFC
:10380000841A71EB030C07D212198CF0004C43EBB5
:103810000C03001B61EB0C01DFF8A4E14FEA11542B
:10382000A4EB135C1EEA430F18BF9EEA445F00F04E
:10383000B08023EA6E03524221EA0451C3EB6E03C7
:1038400038BF5B1EDCF1200E25D322FA0CFE10EBF4
:103850000E0043FA0CFE41EB0E01CCF1200E03FAF0
:103860000EFE10EB0E0051F10001CCF1200E29D418
:1038700012FA0EF201EB0451BDE8104058BF704738
:10388000401C1CBFB2F1004F704700280CBF491C00
:1038900020F00100704712EB020E43EB030218BF49
:1038A0004FF0010E4EEA4202ACF1200CDCF11E0E8C
:1038B00054D943FA0CFE10EB0E0051F1FF31CCF15C
:1038C0001E0ED5D50EF1010E12FA0EFE404141EB4F
:1038D000010101EB445C5FEA5C5C10D910EBDE7027
:1038E00001EB045138BFBEF1004FBDE8104018BFD6
:1038F000704700280CBF491C20F00100704730D2EF
:103900004FEAD42C11F5001124F400641BD0B1FA55
:1039100081F20B3AA41AA41ED2F12003914030FA8E
:1039200003F31943904001EBCC71002C01EB0451DF
:10393000BDE81040A8BF704701F1C0414FF0000042
:1039400001F000417047B0FA80F310FA03F100D1A2
:1039500010BDE41A173C4805C90AE4E701EB04511D
:1039600010BD491001EB0451BDE810404FEA300092
:1039700002E04FF0000170474A0008BF0042F8D053
:10398000B2F5001F28BF704701F000414FF0000062
:1039900070479EEA445F07D011EA5E0FBDE8104011
:1039A00004BF002100207047BDE8104070B5FFF74C
:1039B000BFFE00BF40DFF63E83F000411046704777
:1039C0000000E0FF43004FEAD30C4FEA3C0C4340B9
:1039D0001FBF40070CF1605113F0FE4F70471CF001
:1039E000006F03D100200CF0004170470CF0004341
:1039F00043EA507010B540EACC0000F066F900BF11
:103A0000000000924FEA0001FFF7E0BE4FF00041D6
:103A10004FF00000A1F500217047000090EA010F6F
:103A200048BF81F0004100F1D481421A3CBF801AA6
:103A300089184FEAD0524FF07F4C1CEA410FA2EB9D
:103A4000D15318BF9CEA026F00F03B804FF0004C4E
:103A50004CEA00204CEA012121FA03FC10EB0C0C8B
:103A60001ED202F1FF325FEA1C2040EBC25038BF89
:103A700070471CF07F0F4FEA400C18BFBCF17F4F1E
:103A800038BF7047C3F12003994008BF20F0010000
:103A9000BCF17F4F38BF7047A0F1C04000F05BB968
:103AA0004FEA3C00000A40EBC25028BF1CF0FF0F59
:103AB0004FEA400CE6D018BFBCF17F4F38BF7047CB
:103AC000EAE79CEA026F05D010EA5C0F08BF00F03D
:103AD0000040704710B500F0F8F800BF64FBBE3E30
:103AE000401058BFC0F14040491058BFC1F140419B
:103AF0008142EFF30080704741000B0ED3F19E022C
:103B000008D950F400034FEA032323FA02F048BF18
:103B10004042704710B500F0D8F800BF49922480A9
:103B2000002070476FF0004282EA200070470000DA
:103B300010F0004148BF4042B0FA80F310FA03F29F
:103B4000C3F19D030BD051EAC35101EB1220530680
:103B500038BF704700F1010008BF20F00100704736
:103B600050EA010C00F113801CF5000F58BFBCF5A2
:103B7000000F01D48842704707D710F5000F58BFD7
:103B800011F5000F15D488427047894270471CF523
:103B9000000F04D5BCF5000FF7D5814270474FF0F8
:103BA000807C1CEB400F38BF1CEB410F01D28142DF
:103BB000704710B500F089F8922449004FF000508A
:103BC0004FF08051FFF78CBF4FF47F0C1CEAD012EE
:103BD0001EBF1CEAD11392EA0C0F93EA0C0F00F0FF
:103BE000478090EA010F48BF42F480724FF0004CCA
:103BF0004CEA00204CEA012102EB0302A0FB011376
:103C0000A2F50002002918BF43F001035B0028BFA2
:103C10004FEA330342EB22425FEA132C4CEBC250D3
:103C20002EBFBCEB436FB2F57C0F70474FEA036CBD
:103C3000BCF1004F08BF20F00100B2F57C0F38BF87
:103C400070470BD582F0FF0212F5803FC8BF704766
:103C500000F1C040D8BF00F00040704700F5000CF4
:103C60005FEA4C0C48BF7047B0F1C04000F073B839
:103C700090EA010F0CEAD11348BF42F4807262450A
:103C800038BF634504D280EA010000F0004070476D
:103C900010B500F01AF800BF8900013E00F007B827
:103CA00000F009B85FEA410C5FEA1C6C08D080EABA
:103CB000010000F050B85FEA400C5FEA1C6CF6D1DE
:103CC0004FF00040A0F5800070470EF1020E2EF07C
:103CD000030E5EF8044B244204D44FEA4102B2F1D1
:103CE0007F4F11D84FEA4003B3F17F4F0CD80ED16C
:103CF0004FEAD07CB2F17F4F0CEB4C0C0CF1020C74
:103D000008BF4CEBD17C04E04FF0080C01E04FEA17
:103D1000D17C0CEB4C0324FA03F404F00704B4F157
:103D2000040C06D20EEB840CBDE810404CF0010CE4
:103D30006047DFE80CF0070802024FF00040A0F5F2
:103D4000800010BD0846420018BFD2F1807288BFC3
:103D500000F0004010BDFF2141EAD050C00570477F
:103D600051EA000C00F113801CF5000F58BFBCF5A0
:103D7000000F01D48142704707D711F5000F58BFDB
:103D800010F5000F15D481427047894270471CF529
:103D9000000F04D5BCF5000FF7D5884270474FF0EF
:103DA000807C1CEB410F38BF1CEB400F01D28842D6
:103DB000704780EA010081EA000180EA0100FFF714
:103DC000F8BE000090EA010F48BF81F000413FF5C6
:103DD0002CAE421A04D882F00042A0EB020011443B
:103DE0004FEAD0524FF07F4C1CEA410FA2EBD15367
:103DF00018BF9CEA026F4AD04FF0004C4CEA0020FA
:103E00004CEA012121FA03FCB0EB0C0C0FD412F0A8
:103E1000FE0F36D05FEA4C001DD5001240EBC250B9
:103E200038BF70471CF03F0F18BF70470BE0A2F17E
:103E300001025FEA1C2040EBC25038BF70471CF003
:103E40007F0F18BF7047C3F12003994014BF401E75
:103E500020F00100704780084FEA122308BF704726
:103E6000B0FA80FCA2EB0C02CCF1280C60FA0CF04A
:103E700093EA122F04BF00EBC25070474FEAC370A1
:103E80007047130A5FEADC1008BF7047F6E79CEA48
:103E9000026F04D010EA5C0F08BF0020704710B515
:103EA000FFF713FF40DFF63E81F00040704700004F
:103EB000D03E000800000020C80000006C0100088F
:103EC000983F0008C8000020B017000088010008D3
:103ED00000000000010203040102030406070809B0
:103EE00002040608040000000500DC05DC050000F3
:103EF00000000000000000000000000000000000C2
:103F000000000000000000000000000000000000B1
:103F100000000000000000000000000000000000A1
:103F20000000000000000000000000000000000091
:103F30000000000000000000000000000000000081
:103F40000000000000000000000000000000000071
:103F50000000000000000000000000000000000061
:103F60000000000000000000000000000000000051
:103F700000000000DC05000001000000000000005F
:103F80000000000000000000000000000000000031
:083F9000000000000000000029
:0400000508000131BD
:00000001FF
